:100000000C942A000C94A3050C94D6050C940906B4
:100010000C9447000C9447000C946E0D0C94470010
:100020000C9447000C9447000C9447000C94470034
:100030000C946D0C0C942E0A0C94F9090C94470046
:100040000C94EF110C9447000C9447000C9447005B
:100050000C94470011241FBECFE5D8E0DEBFCDBF12
:1000600010E0A0E6B0E0E0E8FFE302C005900D92EA
:10007000AC36B107D9F712E0ACE6B0E001C01D9292
:10008000A231B107E1F70E943B1F0C94BE1F0C94F4
:100090000000EF92FF920F931F937B018C0120E0F1
:1000A00030E040E05FE40E94490388238CF0C801FF
:1000B000B70120E030E040E05FE40E94C1010E940F
:1000C000A9039B01AC01205030404040504806C07D
:1000D000C801B7010E94A9039B01AC01B901CA0183
:1000E0001F910F91FF90EF900895A0E0B0E0EBE733
:1000F000F0E00C94421FDC012B01FA019C9192303C
:1001000008F439C1EB018881823008F433C194309E
:1001100069F4843009F02FC111969C91119789815F
:10012000981709F428C1A0E6B0E025C1843009F48D
:1001300021C18230A9F4923009F01DC19A01AD01AC
:1001400088E0EA010990AE01E90109929E0181501F
:10015000C1F7E201898111969C918923818308C1AD
:10016000923009F407C112962D903C901397EB0141
:100170008A819B811496AD90BD90CD90DC901797AD
:10018000EC80FD800E811F819101281B390BB90184
:1001900037FF04C066277727621B730B6032710537
:1001A0000CF061C0121613066CF537014801062EDB
:1001B00004C096948794779467940A94D2F721E0C8
:1001C00030E040E050E004C0220F331F441F551FB1
:1001D0006A95D2F721503040404050402E213F21B7
:1001E00040235123211531054105510521F021E01E
:1001F00030E040E050E079018A01E628F72808293C
:1002000019293CC0232BD1F1260E371E350146019A
:10021000062E04C096948794779467940A94D2F734
:1002200021E030E040E050E004C0220F331F441FC3
:10023000551F6A95D2F721503040404050402A2146
:100240003B214C215D21211531054105510521F04E
:1002500021E030E040E050E059016A01A628B728CB
:10026000C828D9280BC0821593052CF01C01AA249C
:10027000BB24650103C0EE24FF24870111969C91E5
:10028000D20111968C91981709F445C0992339F041
:10029000A80197012A193B094C095D0906C0A6016E
:1002A00095012E193F09400B510B57FD08C01182D3
:1002B0003382228224833583468357831DC081E0A5
:1002C00081833382228288279927DC01821B930B4A
:1002D000A40BB50B84839583A683B7830DC0220F2F
:1002E000331F441F551F24833583468357838281E0
:1002F000938101979383828324813581468157813D
:10030000DA01C9010197A109B1098F5F9F4FAF4F72
:10031000BF4328F30BC0918333822282EA0CFB1C7B
:100320000C1D1D1DE482F5820683178383E0808304
:10033000248135814681578157FF1AC0C901AA27F8
:1003400097FDA095BA2F81709070A070B0705695EF
:10035000479537952795822B932BA42BB52B848318
:100360009583A683B7838281938101969383828349
:10037000DF0101C0D201CD01CDB7DEB7E2E10C94BF
:100380005E1FA0E2B0E0E7ECF1E00C944E1F698341
:100390007A838B839C832D833E834F835887E9E048
:1003A000EE2EF12CEC0EFD1ECE010196B7010E943F
:1003B000D2048E010F5E1F4FCE010596B8010E9438
:1003C000D2048A8991E089278A8BC701B801AE01DE
:1003D000475E5F4F0E9475000E94FD03A096E6E015
:1003E0000C946A1FA0E2B0E0E8EFF1E00C944E1F1D
:1003F00069837A838B839C832D833E834F835887C5
:10040000F9E0EF2EF12CEC0EFD1ECE010196B701A6
:100410000E94D2048E010F5E1F4FCE010596B801D7
:100420000E94D204C701B801AE01475E5F4F0E942F
:1004300075000E94FD03A096E6E00C946A1FA0E2FE
:10044000B0E0E5E2F2E00C94421F69837A838B838B
:100450009C832D833E834F835887CE010196BE0136
:10046000675F7F4F0E94D204CE010596BE016F5E8A
:100470007F4F0E94D2049985923088F0898982301A
:10048000C8F0943019F4823051F404C0843029F457
:10049000923081F480E690E0C6C0923049F420E0CA
:1004A0009A858A89981321E02A87CE010996BBC0D4
:1004B000823049F420E09A858A89981321E02A8BBA
:1004C000CE014196B0C02D843E844F8458886D88FB
:1004D0007E888F88988CEE24FF248701AA24BB2471
:1004E000650140E050E060E070E0E0E0F0E0C10174
:1004F00081709070892BE9F0E60CF71C081D191D1E
:100500009A01AB012A0D3B1D4C1D5D1D80E090E062
:10051000A0E0B0E0E614F7040805190520F481E036
:1005200090E0A0E0B0E0BA01A901480F591F6A1F8E
:100530007B1FAA0CBB1CCC1CDD1C97FE08C081E0F5
:1005400090E0A0E0B0E0A82AB92ACA2ADB2A3196B6
:10055000E032F10549F0660C771C881C991C569412
:10056000479437942794C3CFFA85EA892B893C892D
:100570008B859C85280F391F2E5F3F4F17C0CA01FE
:1005800081709070892B61F016950795F794E79428
:1005900080E090E0A0E0B0E8E82AF92A0A2B1B2BC3
:1005A00076956795579547952F5F3F4F77FDE7CF36
:1005B0000CC0440F551F661F771F17FD4160EE0CDE
:1005C000FF1C001F111F21503040403090E05907A0
:1005D00090E0690790E4790760F32B8F3C8FDB0193
:1005E000CA018F779070A070B07080349105A1051A
:1005F000B10561F447FD0AC0E114F10401051105DC
:1006000029F0405C5F4F6F4F7F4F40781A8EFE1786
:1006100011F081E08A8F4D8F5E8F6F8F78A383E01A
:10062000898FCE0149960E94FD03A096E2E10C94C9
:100630005E1FA8E1B0E0EFE1F3E00C944E1F698388
:100640007A838B839C832D833E834F83588789E0F5
:10065000E82EF12CEC0EFD1ECE010196B7010E9492
:10066000D2048E010F5E1F4FCE010596B8010E9485
:10067000D2048985823040F08989823028F0C70110
:10068000B8010E944A0501C08FEF6896E6E00C941D
:100690006A1FA8E1B0E0EFE4F3E00C944E1F698319
:1006A0007A838B839C832D833E834F83588789E095
:1006B000E82EF12CEC0EFD1ECE010196B7010E9432
:1006C000D2048E010F5E1F4FCE010596B8010E9425
:1006D000D2048985823040F08989823028F0C701B0
:1006E000B8010E944A0501C08FEF6896E6E00C94BD
:1006F0006A1FA8E1B0E0EFE7F3E00C944E1F6983B6
:100700007A838B839C832D833E834F83588789E034
:10071000E82EF12CEC0EFD1ECE010196B7010E94D1
:10072000D2048E010F5E1F4FCE010596B8010E94C4
:10073000D2048985823040F08989823028F0C7014F
:10074000B8010E944A0501C081E06896E6E00C9479
:100750006A1FACE0B0E0EFEAF3E00C94521F69834B
:100760007A838B839C83CE010196BE016B5F7F4FA2
:100770000E94D2048D81823061F1823050F1843048
:1007800021F48E81882351F12EC02F81388537FDC9
:1007900020C06E812F3131051CF06623F9F023C093
:1007A0008EE190E0821B930B29853A854B855C8511
:1007B00004C056954795379527958A95D2F76623B5
:1007C000B1F050954095309521953F4F4F4F5F4F79
:1007D0000EC020E030E040E050E009C02FEF3FEFD6
:1007E0004FEF5FE704C020E030E040E050E8B9019F
:1007F000CA012C96E2E00C946E1FDF92EF92FF92FA
:100800000F931F93FC01E480F58006811781D1804E
:100810008081823048F480E090E0A0E1B0E0E82AF6
:10082000F92A0A2B1B2BA5C0843009F49FC0823003
:1008300021F4EE24FF24870105C0E114F104010531
:10084000110519F4E0E0F0E096C0628173819FEF3A
:10085000623879070CF05BC022E83FEF261B370BAC
:100860002A3131052CF020E030E040E050E02AC091
:10087000B801A701022E04C0769567955795479554
:100880000A94D2F781E090E0A0E0B0E004C0880FC5
:10089000991FAA1FBB1F2A95D2F70197A109B10979
:1008A0008E219F21A023B1230097A105B10521F03E
:1008B00081E090E0A0E0B0E09A01AB01282B392B59
:1008C0004A2B5B2BDA01C9018F779070A070B07052
:1008D00080349105A105B10539F427FF09C0205CDA
:1008E0003F4F4F4F5F4F04C0215C3F4F4F4F5F4F13
:1008F000E0E0F0E02030A0E03A07A0E04A07A0E402
:100900005A0710F0E1E0F0E079018A0127C0603871
:10091000710564F5FB01E158FF4FD801C7018F77DE
:100920009070A070B07080349105A105B10539F4C4
:10093000E7FE0DC080E490E0A0E0B0E004C08FE3EB
:1009400090E0A0E0B0E0E80EF91E0A1F1B1F17FFA1
:1009500005C016950795F794E794319687E01695AC
:100960000795F794E7948A95D1F705C0EE24FF2404
:100970008701EFEFF0E06E2F679566276795902F60
:100980009F77D794DD24D7948E2F8695492F462BB9
:10099000582F5D29B701CA011F910F91FF90EF9069
:1009A000DF900895FC01DB01408151812281622F9B
:1009B0006F7770E0221F2227221F9381892F880FD3
:1009C000822B282F30E0991F9927991F11969C930D
:1009D000119721153105A9F54115510561057105DD
:1009E00011F482E037C082E89FEF13969C938E93B8
:1009F00012979A01AB0167E0220F331F441F551F66
:100A00006A95D1F783E08C930DC0220F331F441FEA
:100A1000551F12968D919C911397019713969C9355
:100A20008E931297203080E0380780E0480780E4FA
:100A3000580758F314962D933D934D935C93179755
:100A400008952F3F310579F4411551056105710570
:100A500019F484E08C93089564FF03C081E08C93C3
:100A600012C01C9210C02F57304013963C932E9307
:100A7000129783E08C9387E0440F551F661F771F02
:100A80008A95D1F7706414964D935D936D937C9322
:100A9000179708951F93DC01FB019C91923008F495
:100AA00047C08081823008F443C0943051F41196DD
:100AB0001C91843099F58181682F70E0611B710968
:100AC0003FC0843021F0923031F48230B9F181811D
:100AD000882389F12DC011961C9111978230F1F075
:100AE00081811817D9F412962D913C911397828128
:100AF00093818217930794F028173907BCF0149656
:100B00008D919D910D90BC91A02D248135814681C0
:100B10005781281739074A075B0718F4112341F05A
:100B20000AC082179307A407B50740F4112319F0F0
:100B300061E070E005C06FEF7FEF02C060E070E041
:100B4000CB011F9108951F920F920FB60F9211249F
:100B50002F933F934F935F936F937F938F939F93C5
:100B6000AF93BF93EF93FF93DF93CF93CDB7DEB7F0
:100B700080916C0090916D00009729F0E0916C00DD
:100B8000F0916D000995CF91DF91FF91EF91BF91A9
:100B9000AF919F918F917F916F915F914F913F9115
:100BA0002F910F900FBE0F901F9018951F920F92CC
:100BB0000FB60F9211242F933F934F935F936F9330
:100BC0007F938F939F93AF93BF93EF93FF93DF93A5
:100BD000CF93CDB7DEB780916E0090916F000097F4
:100BE00029F0E0916E00F0916F000995CF91DF91AF
:100BF000FF91EF91BF91AF919F918F917F916F91F5
:100C00005F914F913F912F910F900FBE0F901F90CA
:100C100018951F920F920FB60F9211242F933F93A6
:100C20004F935F936F937F938F939F93AF93BF93F4
:100C3000EF93FF93DF93CF93CDB7DEB78091700032
:100C400090917100009729F0E0917000F09171008F
:100C50000995CF91DF91FF91EF91BF91AF919F9156
:100C60008F917F916F915F914F913F912F910F9055
:100C70000FBE0F901F901895DF93CF93CDB7DEB7BF
:100C800027970FB6F894DEBF0FBECDBF8A836B8364
:100C90005D834C8381E089830E94C4078A81282F69
:100CA00030E03F832E838E819F8181309105B9F0A2
:100CB0002E813F812230310501F18E819F81009785
:100CC00051F5ABE5B0E0EBE5F0E0808180648C931A
:100CD0008C819D8190936D0080936C001EC0ABE56C
:100CE000B0E0EBE5F0E0808180688C938C819D81A1
:100CF00090936F0080936E0010C0ABE5B0E0EBE521
:100D0000F0E0808180628C938C819D819093710052
:100D10008093700002C081E089838A816B810E9488
:100D2000A106982F8981892B89830E94D707898101
:100D300027960FB6F894DEBF0FBECDBFCF91DF91DF
:100D40000895DF93CF9300D000D00F92CDB7DEB7D8
:100D50008A836B8381E089838A81282F30E03D83F9
:100D60002C838C819D818130910509F45AC02C819E
:100D70003D812230310509F4A3C08C819D8100970B
:100D800009F0B9C08B81882381F4A5E5B0E0E5E5E1
:100D9000F0E080818D7F8C93A5E5B0E0E5E5F0E0A3
:100DA00080818E7F8C931982A8C08B81813081F4E1
:100DB000A5E5B0E0E5E5F0E080818D7F8C93A5E5C9
:100DC000B0E0E5E5F0E0808181608C93198295C008
:100DD0008B81823081F4A5E5B0E0E5E5F0E080812B
:100DE00082608C93A5E5B0E0E5E5F0E080818E7F40
:100DF0008C93198282C08B81833081F4A5E5B0E0A9
:100E0000E5E5F0E0808182608C93A5E5B0E0E5E562
:100E1000F0E0808181608C9319826FC081E08983CA
:100E20006CC08B81882381F4A5E5B0E0E5E5F0E0B6
:100E30008081877F8C93A5E5B0E0E5E5F0E08081D7
:100E40008B7F8C93198259C08B81813081F4A5E509
:100E5000B0E0E5E5F0E08081877F8C93A5E5B0E028
:100E6000E5E5F0E0808184608C93198246C08B8137
:100E7000823081F4A5E5B0E0E5E5F0E080818860AE
:100E80008C93A5E5B0E0E5E5F0E080818B7F8C9365
:100E9000198233C08B81833081F4A5E5B0E0E5E5AC
:100EA000F0E0808188608C93A5E5B0E0E5E5F0E0B6
:100EB000808184608C93198220C081E089831DC069
:100EC0008B81823049F4A4E5B0E0E4E5F0E0808174
:100ED0008F7B8C93198211C08B81833049F4A4E5F8
:100EE000B0E0E4E5F0E0808180648C93198205C075
:100EF00081E0898302C081E0898389810F900F900E
:100F00000F900F900F90CF91DF910895DF93CF93C3
:100F100000D000D0CDB7DEB78A8381E089838A8193
:100F2000282F30E03C832B838B819C81813091057D
:100F300089F02B813C8122303105A1F08B819C818D
:100F40000097C1F4ABE5B0E0EBE5F0E080818F7B8A
:100F50008C9312C0ABE5B0E0EBE5F0E080818F77D9
:100F60008C930AC0ABE5B0E0EBE5F0E080818F7DCB
:100F70008C9302C081E0898389810F900F900F903C
:100F80000F90CF91DF910895DF93CF930F92CDB75C
:100F9000DEB781E08983AFE5B0E0EFE5F0E0808186
:100FA0008F778C9389810F90CF91DF910895DF9394
:100FB000CF930F92CDB7DEB781E08983AFE5B0E084
:100FC000EFE5F0E0808180688C9389810F90CF916C
:100FD000DF910895DF93CF9300D000D0CDB7DEB777
:100FE0008A831982A1E4B0E0E1E4F0E08081887FA7
:100FF0008C938A81282F30E03C832B838B819C81CA
:101000008330910509F441C02B813C8124303105A6
:101010007CF48B819C818130910539F12B813C815D
:101020002230310554F58B819C810097B1F055C079
:101030002B813C8125303105C1F18B819C8185302C
:1010400091055CF12B813C8126303105B1F18B811A
:101050009C8187309105C9F140C0A1E4B0E0E1E492
:10106000F0E0808188608C933AC0A1E4B0E0E1E4D4
:10107000F0E0808189608C9332C0A1E4B0E0E1E4CB
:10108000F0E080818A608C932AC0A1E4B0E0E1E4C2
:10109000F0E080818B608C9322C0A1E4B0E0E1E4B9
:1010A000F0E080818C608C931AC0A1E4B0E0E1E4B0
:1010B000F0E080818D608C9312C0A1E4B0E0E1E4A7
:1010C000F0E080818E608C930AC0A1E4B0E0E1E49E
:1010D000F0E080818F608C9302C081E089838981F8
:1010E0000F900F900F900F90CF91DF910895DF93A5
:1010F000CF93CDB7DEB7A1E4B0E0E1E4F0E08081CA
:1011000088618C93E1E4F0E0108280E0CF91DF9180
:101110000895DF93CF9300D00F92CDB7DEB78A83C7
:1011200019820E9477088A810E94EA07882319F0B1
:1011300081E08B8302C089818B838B810F900F901C
:101140000F90CF91DF910895DF93CF93CDB7DEB7A6
:10115000A0E4B0E0E0E4F0E0808186688C93E0E415
:10116000F0E01082E9E2F0E087E68083AAE2B0E0F6
:10117000EAE2F0E0808188618C93CF91DF9108955D
:10118000DF93CF9300D000D00F92CDB7DEB79C8312
:101190008B836D831A828B819C81009779F18D817D
:1011A000853660F580913A01882341F58D818093E1
:1011B0003C01198213C08981482F50E08981282F72
:1011C00030E08B819C81FC01E20FF31F8081FA01EA
:1011D000EE58FF4F808389818F5F898399818D814C
:1011E000981748F3ACE2B0E080913A01882F90E084
:1011F000FC01EE58FF4F80818C9302C081E08A830E
:101200008A810F900F900F900F900F90CF91DF91E8
:101210000895DF93CF9300D000D000D0CDB7DEB7D4
:101220009C838B837E836D831A828B819C81009744
:1012300051F18D819E81009731F180913B0188238E
:1012400011F1198213C08981282F30E08B819C8194
:10125000DC01A20FB31F8981882F90E0FC01EA52C4
:10126000FF4F80818C9389818F5F898390913B01AF
:101270008981891740F380913B01ED81FE81808354
:1012800010923B0102C081E08A838A8126960FB6C4
:10129000F894DEBF0FBECDBFCF91DF910895DF93ED
:1012A000CF9300D000D00F92CDB7DEB79C838B8355
:1012B0006D831A828B819C810097F9F0198218C086
:1012C000EBE2F0E08081882F90E0807290700097D0
:1012D000B9F3ACE2B0E08981282F30E08B819C81AA
:1012E000FC01E20FF31F80818C9389818F5F8983DA
:1012F00099818D81981720F302C081E08A838A81C9
:101300000F900F900F900F900F90CF91DF91089555
:10131000DF93CF9300D00F92CDB7DEB79B838A8344
:1013200019828A819B81009799F0EBE2F0E080813D
:101330008823DCF7ECE2F0E08081EA81FB818083A6
:10134000ABE2B0E0EBE2F0E0808180688C9302C019
:1013500081E0898389810F900F900F90CF91DF9169
:101360000895DF93CF930F92CDB7DEB78983AAE2BA
:10137000B0E0EAE2F0E080818F7B8C93AAE2B0E0FB
:10138000EAE2F0E08081282F8981882F90E0002414
:10139000969587950794969587950794982F802D15
:1013A000822B8C9380E00F90CF91DF910895DF9393
:1013B000CF930F92CDB7DEB78983AAE2B0E0EAE21D
:1013C000F0E080818F778C93AAE2B0E0EAE2F0E06F
:1013D0008081282F8981882F90E09695982F8827E3
:1013E00097958795822B8C9380E00F90CF91DF911A
:1013F00008951F920F920FB60F9211248F939F930F
:10140000AF93BF93EF93FF93DF93CF93CDB7DEB747
:1014100080913A018F5F80933A0190913A018091D7
:101420003C01981760F4ACE2B0E080913A01882F5B
:1014300090E0FC01EE58FF4F80818C9302C0109227
:101440003A01CF91DF91FF91EF91BF91AF919F91C1
:101450008F910F900FBE0F901F9018951F920F92B3
:101460000FB60F9211242F938F939F93EF93FF93B7
:10147000DF93CF93CDB7DEB780913B01843680F404
:1014800080913B01882F90E0ECE2F0E02081FC01AC
:10149000EA52FF4F208380913B018F5F80933B0195
:1014A000CF91DF91FF91EF919F918F912F910F90AD
:1014B0000FBE0F901F901895DF93CF93CDB7DEB777
:1014C000CF91DF910895DF93CF93CDB7DEB7CF9162
:1014D000DF910895DF93CF93CDB7DEB78CE59AE027
:1014E00090930D0280930C0283E69AE090930B0296
:1014F00080930A02E2E5F0E01082ECE5F0E08AEF8A
:101500008083A3E5B0E0E3E5F0E08081877F8C9302
:10151000A3E5B0E0E3E5F0E080818F7B8C93A3E569
:10152000B0E0E3E5F0E0808181608C93A3E5B0E07A
:10153000E3E5F0E080818D7F8C93A3E5B0E0E3E507
:10154000F0E0808184608C93A3E5B0E0E3E5F0E017
:1015500080818F7E8C93A3E5B0E0E3E5F0E08081AD
:101560008F7D8C93CF91DF910895DF93CF930F926E
:10157000CDB7DEB789838981813041F4A9E5B0E038
:10158000E9E5F0E0808181608C930AC0898188233D
:1015900039F4A9E5B0E0E9E5F0E080818E7F8C9335
:1015A0000F90CF91DF910895DF93CF930F92CDB736
:1015B000DEB789838981813041F4A9E5B0E0E9E5AE
:1015C000F0E0808182608C930AC08981882339F49D
:1015D000A9E5B0E0E9E5F0E080818D7F8C930F9084
:1015E000CF91DF910895DF93CF930F92CDB7DEB700
:1015F0008983E2E5F0E0898180830F90CF91DF91CC
:101600000895DF93CF930F92CDB7DEB78983ECE5D2
:10161000F0E0898180830F90CF91DF910895DF936F
:10162000CF930F92CDB7DEB789838981813041F4A2
:10163000A3E5B0E0E3E5F0E0808180688C930AC028
:101640008981882339F4A3E5B0E0E3E5F0E0808107
:101650008F778C930F90CF91DF910895DF93CF9385
:1016600000D0CDB7DEB79A83898389819A81909320
:101670000D0280930C020F900F90CF91DF9108958F
:10168000DF93CF9300D0CDB7DEB79A83898389816A
:101690009A8190930B0280930A020F900F90CF9142
:1016A000DF910895DF93CF93CDB7DEB7ADE2B0E021
:1016B000EDE2F0E0808180618C93ADE2B0E0EDE29C
:1016C000F0E080818F7D8C93ADE2B0E0EDE2F0E060
:1016D000808184608C93ADE2B0E0EDE2F0E0808147
:1016E000877F8C93ADE2B0E0EDE2F0E08081816035
:1016F0008C93ADE2B0E0EDE2F0E0808182608C930B
:10170000ADE2B0E0EDE2F0E0808180648C9380E0B7
:10171000CF91DF910895DF93CF9300D0CDB7DEB79F
:101720008A831982EFE2F0E08A818083EEE2F0E0C2
:1017300080818823DCF789810F900F90CF91DF9112
:101740000895DF93CF9300D00F92CDB7DEB79B8380
:101750008A831982EEE2F0E080818823DCF7EFE2F1
:10176000F0E08081EA81FB81808389810F900F9076
:101770000F90CF91DF910895DF93CF9300D000D0E9
:101780000F92CDB7DEB79C838B836D831A828B81DA
:101790009C81009779F18D81853660F580910502F5
:1017A000882341F58D8180930702198213C08981B6
:1017B000482F50E08981282F30E08B819C81FC01EB
:1017C000E20FF31F8081FA01E35CFE4F8083898181
:1017D0008F5F898399818D81981748F3AFE2B0E0DC
:1017E00080910502882F90E0FC01E35CFE4F808130
:1017F0008C9302C081E08A838A810F900F900F90B2
:101800000F900F90CF91DF910895DF93CF9300D089
:1018100000D000D0CDB7DEB79C838B837E836D83F1
:101820001A828B819C81009751F18D819E81009756
:1018300031F180910602882311F1198213C0898148
:10184000282F30E08B819C81DC01A20FB31F89819E
:10185000882F90E0FC01EF55FE4F80818C938981A9
:101860008F5F8983909106028981891740F3809167
:101870000602ED81FE8180831092060202C081E0A3
:101880008A838A8126960FB6F894DEBF0FBECDBF3D
:10189000CF91DF910895DF93CF930F92CDB7DEB74D
:1018A0008983ADE2B0E0EDE2F0E080818F778C9348
:1018B000ADE2B0E0EDE2F0E08081282F8981882F51
:1018C00090E09695982F882797958795822B8C93F3
:1018D00080E00F90CF91DF9108951F920F920FB685
:1018E0000F9211242F938F939F93AF93BF93EF93F6
:1018F000FF93DF93CF93CDB7DEB7809105028F5F63
:101900008093050280910602843680F4809106025D
:10191000882F90E0EFE2F0E02081FC01EF55FE4FD0
:101920002083809106028F5F8093060290910502CA
:1019300080910702981780F480910702882361F054
:10194000AFE2B0E080910502882F90E0FC01E35CFB
:10195000FE4F80818C9304C0109205021092070202
:10196000CF91DF91FF91EF91BF91AF919F918F91B7
:101970002F910F900FBE0F901F901895DF93CF936C
:10198000CDB7DEB7CF91DF910895DF93CF9300D02D
:10199000CDB7DEB79A838983E7E4F0E08081882FB2
:1019A00090E0382F2227E8E4F0E08081882F90E053
:1019B000822B932BE981FA819183808380E00F90C1
:1019C0000F90CF91DF910895DF93CF9300D0CDB7E3
:1019D000DEB79A838983E8E5F0E080818295869579
:1019E00087708170E981FA81808380E00F900F9089
:1019F000CF91DF910895DF93CF93CDB7DEB7A8E500
:101A0000B0E0E8E5F0E0808180628C9380E0CF91E7
:101A1000DF910895DF93CF930F92CDB7DEB789831F
:101A2000A9E5B0E0E9E5F0E080818F7D8C93A9E540
:101A3000B0E0E9E5F0E08081282F8981882F90E0EF
:101A4000880F991F82959295907F9827807F98277D
:101A5000822B8C9380E00F90CF91DF910895DF93DC
:101A6000CF930F92CDB7DEB78983AEE4B0E0EEE45A
:101A7000F0E080818F7B8C93AEE4B0E0EEE4F0E0A8
:101A80008081282F8981882F90E000249695879562
:101A90000794969587950794982F802D822B8C9389
:101AA000A8E5B0E0E8E5F0E0808180628C9380E01A
:101AB0000F90CF91DF910895DF93CF9300D0CDB7F2
:101AC000DEB79A83898389819A8190930F028093EC
:101AD0000E020F900F90CF91DF9108951F920F92F9
:101AE0000FB60F9211242F933F934F935F936F93F1
:101AF0007F938F939F93AF93BF93EF93FF93DF9366
:101B0000CF93CDB7DEB7E0910E02F0910F020995A9
:101B1000CF91DF91FF91EF91BF91AF919F918F9105
:101B20007F916F915F914F913F912F910F900FBED9
:101B30000F901F901895DF93CF93CDB7DEB7E0E2FB
:101B4000F0E088E48083E2E2F0E082E08083E6E592
:101B5000F0E084E48083E1E2F0E01082A1E2B0E012
:101B6000E1E2F0E080818C7F8C93CF91DF9108954A
:101B7000DF93CF93CDB7DEB7A6E5B0E0E6E5F0E0C2
:101B80008081846A8C93E6E5F0E080818823DCF72D
:101B9000CF91DF910895DF93CF93CDB7DEB7A6E560
:101BA000B0E0E6E5F0E0808184698C93CF91DF912D
:101BB0000895DF93CF930F92CDB7DEB78983E3E229
:101BC000F0E089818083A6E5B0E0E6E5F0E0808181
:101BD0008B7584688C93E6E5F0E080818823DCF7E0
:101BE0000F90CF91DF910895DF93CF93CDB7DEB7FC
:101BF000E6E5F0E084EC8083E6E5F0E08081882390
:101C0000DCF7E3E2F0E08081CF91DF910895DF938C
:101C1000CF93CDB7DEB7E6E5F0E084E88083E6E574
:101C2000F0E080818823DCF7E3E2F0E08081CF916F
:101C3000DF910895DF93CF930F92CDB7DEB7E1E246
:101C4000F0E08081887F898389810F90CF91DF9137
:101C50000895DF93CF9300D000D000D0CDB7DEB78A
:101C60008A836B834C8381E089838A81282F30E0CB
:101C70003E832D838D819E818130910509F44BC077
:101C80002D813E81223031052CF48D819E8100977B
:101C900071F0DDC02D813E812230310509F4A3C0F1
:101CA0008D819E818330910509F469C0D0C08C81FB
:101CB0008823B1F4AAE3B0E0EAE3F0E08081482FA2
:101CC0008B81282F30E081E090E0022E02C0880F47
:101CD000991F0A94E2F7809584238C931982B9C0E6
:101CE0008C818130A9F4AAE3B0E0EAE3F0E08081DE
:101CF000482F8B81282F30E081E090E0022E02C037
:101D0000880F991F0A94E2F7842B8C931982A1C043
:101D100081E089839EC08C818823B1F4A7E3B0E081
:101D2000E7E3F0E08081482F8B81282F30E081E0CD
:101D300090E0022E02C0880F991F0A94E2F7809566
:101D400084238C93198285C08C818130A9F4A7E308
:101D5000B0E0E7E3F0E08081482F8B81282F30E06E
:101D600081E090E0022E02C0880F991F0A94E2F7EA
:101D7000842B8C9319826DC081E089836AC08C8129
:101D80008823B1F4A4E3B0E0E4E3F0E08081482FDD
:101D90008B81282F30E081E090E0022E02C0880F76
:101DA000991F0A94E2F7809584238C93198251C07D
:101DB0008C818130A9F4A4E3B0E0E4E3F0E0808119
:101DC000482F8B81282F30E081E090E0022E02C066
:101DD000880F991F0A94E2F7842B8C93198239C0DB
:101DE00081E0898336C08C818823B1F4A1E3B0E01F
:101DF000E1E3F0E08081482F8B81282F30E081E003
:101E000090E0022E02C0880F991F0A94E2F7809595
:101E100084238C9319821DC08C818130A9F4A1E3A5
:101E2000B0E0E1E3F0E08081482F8B81282F30E0A3
:101E300081E090E0022E02C0880F991F0A94E2F719
:101E4000842B8C93198205C081E0898302C081E0D4
:101E50008983898126960FB6F894DEBF0FBECDBF69
:101E6000CF91DF910895DF93CF93CDB7DEB727975A
:101E70000FB6F894DEBF0FBECDBF8A836B835D8340
:101E80004C8381E089838C819D81009709F478C01F
:101E90008A81282F30E03F832E834E815F8141303D
:101EA000510561F18E819F818230910534F42E813C
:101EB0003F812115310569F060C04E815F8142305C
:101EC000510509F445C08E819F818330910559F1F8
:101ED00054C0E9E3F0E08081282F30E08B81882F27
:101EE00090E0A90102C0559547958A95E2F7CA018D
:101EF0008170EC81FD818083198244C0E6E3F0E0CB
:101F00008081282F30E08B81882F90E0A90102C0CA
:101F1000559547958A95E2F7CA018170EC81FD815C
:101F2000808319822FC0E3E3F0E08081282F30E026
:101F30008B81882F90E0A90102C0559547958A951D
:101F4000E2F7CA018170EC81FD81808319821AC099
:101F5000E0E3F0E08081282F30E08B81882F90E053
:101F6000A90102C0559547958A95E2F7CA0181708B
:101F7000EC81FD818083198205C081E0898302C0E4
:101F800081E08983898127960FB6F894DEBF0FBE62
:101F9000CDBFCF91DF910895DF93CF9300D000D0D4
:101FA00000D0CDB7DEB78A836B834C8381E0898311
:101FB0008A81282F30E03E832D838D819E81813060
:101FC000910509F44BC02D813E81223031052CF45E
:101FD0008D819E81009771F0DDC02D813E81223080
:101FE000310509F4A3C08D819E818330910509F4E8
:101FF00069C0D0C08C818823B1F4ABE3B0E0EBE3DF
:10200000F0E08081482F8B81282F30E081E090E044
:10201000022E02C0880F991F0A94E2F7809584234C
:102020008C931982B9C08C818130A9F4ABE3B0E004
:10203000EBE3F0E08081482F8B81282F30E081E0B6
:1020400090E0022E02C0880F991F0A94E2F7842BB9
:102050008C931982A1C081E089839EC08C818823E2
:10206000B1F4A8E3B0E0E8E3F0E08081482F8B8191
:10207000282F30E081E090E0022E02C0880F991FE7
:102080000A94E2F7809584238C93198285C08C8111
:102090008130A9F4A8E3B0E0E8E3F0E08081482FC4
:1020A0008B81282F30E081E090E0022E02C0880F63
:1020B000991F0A94E2F7842B8C9319826DC081E0FA
:1020C00089836AC08C818823B1F4A5E3B0E0E5E39D
:1020D000F0E08081482F8B81282F30E081E090E074
:1020E000022E02C0880F991F0A94E2F7809584237C
:1020F0008C93198251C08C818130A9F4A5E3B0E0A2
:10210000E5E3F0E08081482F8B81282F30E081E0EB
:1021100090E0022E02C0880F991F0A94E2F7842BE8
:102120008C93198239C081E0898336C08C818823E1
:10213000B1F4A2E3B0E0E2E3F0E08081482F8B81CC
:10214000282F30E081E090E0022E02C0880F991F16
:102150000A94E2F7809584238C9319821DC08C81A8
:102160008130A9F4A2E3B0E0E2E3F0E08081482FFF
:102170008B81282F30E081E090E0022E02C0880F92
:10218000991F0A94E2F7842B8C93198205C081E091
:10219000898302C081E08983898126960FB6F894ED
:1021A000DEBF0FBECDBFCF91DF910895DF93CF93F8
:1021B000CDB7DEB7A6E2B0E0E6E2F0E08081877F4F
:1021C0008C93A6E2B0E0E6E2F0E0808180618C933F
:1021D0000E94A511A7E2B0E0E7E2F0E080818F7DE8
:1021E0008C93A6E2B0E0E6E2F0E080818E7F8C93F3
:1021F000A6E2B0E0E6E2F0E080818D7F8C93A6E27B
:10220000B0E0E6E2F0E0808184608C93A7E2B0E089
:10221000E7E2F0E080818F778C93A7E2B0E0E7E21D
:10222000F0E0808180648C93A6E2B0E0E6E2F0E02A
:10223000808180628C93A0E5B0E0E0E5F0E08081F1
:102240008F7D8C93A0E5B0E0E0E5F0E080818F7BAE
:102250008C93A0E5B0E0E0E5F0E080818F778C938F
:10226000CF91DF910895DF93CF9300D000D0CDB709
:10227000DEB789837B836A83A7E2B0E0E7E2F0E020
:102280008081982F907E8981892B8C93A6E2B0E083
:10229000E6E2F0E0808180648C93E6E2F0E0808109
:1022A000869586958695882F90E08170907088231A
:1022B00019F081E08C8319C0E6E2F0E0808182951C
:1022C0008F70882F90E0817090700097A9F3A6E23C
:1022D000B0E0E6E2F0E0808180618C930E947D11A5
:1022E000EA81FB81918380831C828C810F900F9007
:1022F0000F900F90CF91DF910895DF93CF9300D08F
:10230000CDB7DEB71092090210920802E4E2F0E0C5
:1023100080818983E5E2F0E080818A838A81882F49
:1023200090E0382F22278981882F90E0822B932BF1
:10233000909309028093080280910802909109020B
:102340000F900F90CF91DF910895DF93CF93CDB78A
:10235000DEB7A6E2B0E0E6E2F0E0808180688C9330
:10236000CF91DF910895DF93CF93CDB7DEB7A6E28B
:10237000B0E0E6E2F0E080818F778C93CF91DF913F
:102380000895DF93CF93CDB7DEB7A6E2B0E0E6E2E3
:10239000F0E0808188608C93CF91DF910895DF9386
:1023A000CF93CDB7DEB7A6E2B0E0E6E2F0E0808101
:1023B000877F8C93CF91DF910895DF93CF9300D0E7
:1023C000CDB7DEB79A83898389819A819093110270
:1023D000809310020F900F90CF91DF9108951F927C
:1023E0000F920FB60F9211242F933F934F935F9349
:1023F0006F937F938F939F93AF93BF93EF93FF93CD
:10240000DF93CF93CDB7DEB7E0911002F0911102C8
:102410000995CF91DF91FF91EF91BF91AF919F917E
:102420008F917F916F915F914F913F912F910F907D
:102430000FBE0F901F901895DF93CF9300D000D060
:10244000CDB7DEB78A8381E089838A81282F30E087
:102450003C832B838B819C81009731F02B813C81C5
:1024600021303105A9F168C083E062E041E00E94BB
:10247000290E898383E064E041E00E94290E982FB1
:102480008981892B898383E065E041E00E94290EE0
:10249000982F8981892B898383E066E041E00E943F
:1024A000290E982F8981892B898383E067E041E099
:1024B0000E94290E982F8981892B898381E060E011
:1024C00041E00E94290E982F8981892B898336C08B
:1024D00083E063E041E00E94290E898383E064E0A9
:1024E00041E00E94290E982F8981892B898383E0FE
:1024F00065E041E00E94290E982F8981892B89830C
:1025000083E066E041E00E94290E982F8981892BA3
:10251000898383E067E041E00E94290E982F89813A
:10252000892B898381E060E041E00E94290E982F89
:102530008981892B898302C081E0898389810F90F9
:102540000F900F900F90CF91DF910895DF93CF936D
:1025500000D000D00F92CDB7DEB78A836B838A811B
:10256000282F30E03D832C838C819D81009731F0B2
:102570002C813D812130310541F00EC083E062E0C5
:102580004B810E94CC0F198209C083E063E04B812C
:102590000E94CC0F198202C081E0898389810F904B
:1025A0000F900F900F900F90CF91DF910895DF93D0
:1025B000CF9300D000D00F92CDB7DEB78A836B8364
:1025C00081E089838A81282F30E03D832C838C81B0
:1025D0009D81009731F02C813D8121303105A9F199
:1025E00068C08B81982F917083E064E0492F0E942E
:1025F000CC0F89838B818695982F917083E065E05D
:10260000492F0E94CC0F982F8981892B89838B8138
:1026100086958695982F917083E066E0492F0E94F9
:10262000CC0F982F8981892B89838B8186958695FC
:102630008695982F917083E067E0492F0E94CC0F18
:10264000982F8981892B898336C08B81982F91702F
:1026500083E064E0492F0E94CC0F89838B818695AB
:10266000982F917083E065E0492F0E94CC0F982F3E
:102670008981892B89838B8186958695982F917086
:1026800083E066E0492F0E94CC0F982F8981892B27
:1026900089838B81869586958695982F917083E0A6
:1026A00067E0492F0E94CC0F982F8981892B89835D
:1026B00002C081E0898389810F900F900F900F9065
:1026C0000F90CF91DF910895DF93CF9300D000D08A
:1026D0000F92CDB7DEB78A836B8381E089838A81CD
:1026E000282F30E03D832C838C819D81009731F031
:1026F0002C813D812130310541F00EC081E060E048
:102700004B810E94CC0F898309C081E060E04B813E
:102710000E94CC0F898302C081E0898389810F9058
:102720000F900F900F900F90CF91DF910895DF934E
:10273000CF930F92CDB7DEB78983898161E00E9484
:1027400064130F90CF91DF910895DF93CF930F9291
:10275000CDB7DEB78983898160E00E9464130F9052
:10276000CF91DF910895DF93CF9300D000D0CDB704
:10277000DEB78A8381E089838A81282F30E03C8319
:102780002B838B819C818130910581F02B813C8151
:102790002230310591F08B819C810097A9F482E071
:1027A00065E041E00E94290E898310C082E066E066
:1027B00041E00E94290E898309C082E067E041E080
:1027C0000E94290E898302C081E0898389810F904C
:1027D0000F900F900F90CF91DF910895DF93CF93DB
:1027E00000D000D00F92CDB7DEB78A836B8381E033
:1027F00089838A81282F30E03D832C838C819D81C1
:102800008130910581F02C813D812230310591F09C
:102810008C819D810097A9F482E065E04B810E9444
:10282000CC0F898310C082E066E04B810E94CC0F00
:10283000898309C082E067E04B810E94CC0F8983C5
:1028400002C081E0898389810F900F900F900F90D3
:102850000F90CF91DF910895DF93CF930F92CDB773
:10286000DEB78983898161E00E94EE130F90CF91DA
:10287000DF910895DF93CF930F92CDB7DEB78983B1
:10288000898160E00E94EE130F90CF91DF9108954F
:10289000DF93CF93CDB7DEB76E970FB6F894DEBF58
:1028A0000FBECDBF8E8F81E08D8F80E090E0A0E2E3
:1028B000B1E4898F9A8FAB8FBC8F698D7A8D8B8DA8
:1028C0009C8D20E030E04AE755E40E941F02DC01C5
:1028D000CB018D8B9E8BAF8BB88F6D897E898F8955
:1028E000988D20E030E040E85FE30E947903882380
:1028F0002CF481E090E09C8B8B8B3FC06D897E89AE
:102900008F89988D20E03FEF4FE757E40E9419032D
:1029100018164CF5698D7A8D8B8D9C8D20E030E0FA
:1029200040E251E40E941F02DC01CB01BC01CD0159
:102930000E944900DC01CB019C8B8B8B0FC080E98E
:1029400091E09A8B898B89899A890197F1F79A8B03
:10295000898B8B899C8901979C8B8B8B8B899C891C
:10296000009769F714C06D897E898F89988D0E94C0
:102970004900DC01CB019C8B8B8B8B899C89988BCC
:102980008F878F8598890197F1F7988B8F878E8D28
:102990000E942C1480E090E0A0E2B1E48B879C8739
:1029A000AD87BE876B857C858D859E8520E030E078
:1029B0004AE755E40E941F02DC01CB018F83988710
:1029C000A987BA876F81788589859A8520E030E06C
:1029D00040E85FE30E94790388232CF481E090E0D3
:1029E0009E838D833FC06F81788589859A8520E09D
:1029F0003FEF4FE757E40E94190318164CF56B851B
:102A00007C858D859E8520E030E040E251E40E9487
:102A10001F02DC01CB01BC01CD010E944900DC0199
:102A2000CB019E838D830FC080E991E09C838B83D3
:102A30008B819C810197F1F79C838B838D819E8193
:102A400001979E838D838D819E81009769F714C0C5
:102A50006F81788589859A850E944900DC01CB01C8
:102A60009E838D838D819E819A83898389819A81BA
:102A70000197F1F79A8389838E8D0E943A14982FDB
:102A80008D8D892B8D8F1D8E8D8D6E960FB6F89442
:102A9000DEBF0FBECDBFCF91DF9108950F931F937F
:102AA000DF93CF93CDB7DEB7C456D0400FB6F894BE
:102AB000DEBF0FBECDBFFE01EC59FF4F8083FE018C
:102AC000ED59FF4F81E0808381E062E040E00E94A9
:102AD000CC0FFE01ED59FF4F8083FE01E15AFF4FFD
:102AE00080E090E0A0E8BFE380839183A283B3837A
:102AF0008E01055A1F4FFE01E15AFF4F608171811F
:102B00008281938120E030E04AE755E40E941F0271
:102B1000DC01CB01F80180839183A283B383FE01A2
:102B2000E55AFF4F608171818281938120E030E01E
:102B300040E85FE30E947903882344F4FE01E75AEA
:102B4000FF4F81E090E09183808364C0FE01E55AED
:102B5000FF4F608171818281938120E03FEF4FE7D9
:102B600057E40E94190318160CF043C0FE01E15A05
:102B7000FF4F608171818281938120E030E040E2EB
:102B800051E40E941F02DC01CB018E01075A1F4F46
:102B9000BC01CD010E944900DC01CB01F801918309
:102BA00080831FC0FE01E95AFF4F80E991E09183C5
:102BB0008083FE01E95AFF4F808191810197F1F7EF
:102BC000FE01E95AFF4F91838083DE01A75ABF4F70
:102BD000FE01E75AFF4F80819181019711969C93E6
:102BE0008E93FE01E75AFF4F808191810097D1F6C5
:102BF00027C08E01075A1F4FFE01E55AFF4F608123
:102C00007181828193810E944900DC01CB01F8012E
:102C100091838083DE01AB5ABF4FFE01E75AFF4F1D
:102C2000808191818D939C93FE01EB5AFF4F8081AF
:102C300091810197F1F7FE01EB5AFF4F9183808359
:102C400081E063E041E00E94CC0F982FDE01AD5996
:102C5000BF4FFE01ED59FF4F8081892B8C93FE0100
:102C6000EF5AFF4F80E090E0A0E8BFE380839183BC
:102C7000A283B3838E01035B1F4FFE01EF5AFF4F08
:102C8000608171818281938120E030E04AE755E4E0
:102C90000E941F02DC01CB01F80180839183A28393
:102CA000B383FE01E35BFF4F608171818281938179
:102CB00020E030E040E85FE30E947903882344F499
:102CC000FE01E55BFF4F81E090E09183808364C06B
:102CD000FE01E35BFF4F608171818281938120E07F
:102CE0003FEF4FE757E40E94190318160CF043C05A
:102CF000FE01EF5AFF4F608171818281938120E054
:102D000030E040E251E40E941F02DC01CB018E0161
:102D1000055B1F4FBC01CD010E944900DC01CB01C6
:102D2000F801918380831FC0FE01E75BFF4F80E9BC
:102D300091E091838083FE01E75BFF4F8081918169
:102D40000197F1F7FE01E75BFF4F91838083DE017E
:102D5000A55BBF4FFE01E55BFF4F8081918101972D
:102D600011969C938E93FE01E55BFF4F80819181CC
:102D70000097D1F627C08E01055B1F4FFE01E35B74
:102D8000FF4F60817181828193810E944900DC0143
:102D9000CB01F80191838083DE01A95BBF4FFE0167
:102DA000E55BFF4F808191818D939C93FE01E95BF0
:102DB000FF4F808191810197F1F7FE01E95BFF4FA1
:102DC00091838083FE01EC59FF4F808182958F7043
:102DD000982F917080E064E0492F0E94CC0F982FCB
:102DE000DE01AD59BF4FFE01ED59FF4F8081892BA8
:102DF0008C93FE01EC59FF4F8081829586958770F8
:102E0000982F917080E065E0492F0E94CC0F982F99
:102E1000DE01AD59BF4FFE01ED59FF4F8081892B77
:102E20008C93FE01EC59FF4F8081829586958695A3
:102E30008370982F917080E066E0492F0E94CC0F3C
:102E4000982FDE01AD59BF4FFE01ED59FF4F808134
:102E5000892B8C93FE01EC59FF4F8081982F991F8D
:102E60009927991F80E067E0492F0E94CC0F982F87
:102E7000DE01AD59BF4FFE01ED59FF4F8081892B17
:102E80008C93FE01ED5BFF4F80E090E0A0E8BFE394
:102E900080839183A283B3838E01015C1F4FFE0167
:102EA000ED5BFF4F608171818281938120E030E092
:102EB0004AE755E40E941F02DC01CB01F801808340
:102EC0009183A283B383FE01FF9660817181828129
:102ED000938120E030E040E85FE30E94790388239B
:102EE0002CF481E090E09EAF8DAF46C0FE01FF96CE
:102EF000608171818281938120E03FEF4FE757E449
:102F00000E941903181664F5FE01ED5BFF4F608106
:102F100071818281938120E030E040E251E40E949F
:102F20001F02DC01CB01BC01CD010E944900DC0184
:102F3000CB019EAF8DAF0FC080E991E09CAF8BAF0E
:102F40008BAD9CAD0197F1F79CAF8BAF8DAD9EAD76
:102F500001979EAF8DAF8DAD9EAD009769F716C0FE
:102F6000FE01FF9660817181828193810E944900F8
:102F7000DC01CB019EAF8DAF8DAD9EAD9AAF89AF19
:102F800089AD9AAD0197F1F79AAF89AF81E063E01F
:102F900040E00E94CC0F982FDE01AD59BF4FFE01DB
:102FA000ED59FF4F8081892B8C9380E090E0A0E267
:102FB000B1E48DAB9EABAFABB8AF6DA97EA98FA9C5
:102FC00098AD20E030E04AE755E40E941F02DC01A2
:102FD000CB0189AB9AABABABBCAB69A97AA98BA986
:102FE0009CA920E030E040E85FE30E947903882359
:102FF0002CF481E090E098AB8FA73FC069A97AA933
:103000008BA99CA920E03FEF4FE757E40E941903EA
:1030100018164CF56DA97EA98FA998AD20E030E077
:1030200040E251E40E941F02DC01CB01BC01CD0152
:103030000E944900DC01CB0198AB8FA70FC080E94B
:1030400091E09EA78DA78DA59EA50197F1F79EA75C
:103050008DA78FA598A9019798AB8FA78FA598A941
:10306000009769F714C069A97AA98BA99CA90E9445
:103070004900DC01CB0198AB8FA78FA598A99CA72D
:103080008BA78BA59CA50197F1F79CA78BA781E047
:1030900063E041E00E94CC0F982FDE01AD59BF4F95
:1030A000FE01ED59FF4F8081892B8C9380E090E0E9
:1030B000A0E8BFE38FA398A7A9A7BAA76FA178A597
:1030C00089A59AA520E030E04AE755E40E941F0256
:1030D000DC01CB018BA39CA3ADA3BEA36BA17CA100
:1030E0008DA19EA120E030E040E85FE30E947903DB
:1030F00088232CF481E090E09AA389A33FC06BA1C0
:103100007CA18DA19EA120E03FEF4FE757E40E94F4
:10311000190318164CF56FA178A589A59AA520E08A
:1031200030E040E251E40E941F02DC01CB01BC010F
:10313000CD010E944900DC01CB019AA389A30FC0F5
:1031400080E991E098A38F8F8F8D98A10197F1F777
:1031500098A38F8F89A19AA101979AA389A389A186
:103160009AA1009769F714C06BA17CA18DA19EA1C3
:103170000E944900DC01CB019AA389A389A19AA1ED
:103180009E8F8D8F8D8D9E8D0197F1F79E8F8D8FE8
:10319000FE01EC59FF4F8081982F917080E064E030
:1031A000492F0E94CC0F982FDE01AD59BF4FFE0171
:1031B000ED59FF4F8081892B8C93FE01EC59FF4F15
:1031C00080818695982F917080E065E0492F0E945C
:1031D000CC0F982FDE01AD59BF4FFE01ED59FF4FC7
:1031E0008081892B8C93FE01EC59FF4F808186955D
:1031F0008695982F917080E066E0492F0E94CC0F51
:10320000982FDE01AD59BF4FFE01ED59FF4F808170
:10321000892B8C93FE01EC59FF4F80818695869512
:103220008695982F917080E067E0492F0E94CC0F1F
:10323000982FDE01AD59BF4FFE01ED59FF4F808140
:10324000892B8C9380E090E0A0E8BFE3898F9A8F70
:10325000AB8FBC8F698D7A8D8B8D9C8D20E030E09B
:103260004AE755E40E941F02DC01CB018D8B9E8B47
:10327000AF8BB88F6D897E898F89988D20E030E083
:1032800040E85FE30E94790388232CF481E090E01A
:103290009C8B8B8B3FC06D897E898F89988D20E0B8
:1032A0003FEF4FE757E40E94190318164CF5698D5C
:1032B0007A8D8B8D9C8D20E030E040E251E40E94BD
:1032C0001F02DC01CB01BC01CD010E944900DC01E1
:1032D000CB019C8B8B8B0FC080E991E09A8B898B03
:1032E00089899A890197F1F79A8B898B8B899C89B7
:1032F00001979C8B8B8B8B899C89009769F714C0F5
:103300006D897E898F89988D0E944900DC01CB01EF
:103310009C8B8B8B8B899C89988B8F878F859889C9
:103320000197F1F7988B8F8781E063E040E00E947E
:10333000CC0F982FDE01AD59BF4FFE01ED59FF4F65
:103340008081892B8C9380E090E0A0E8BFE38B879D
:103350009C87AD87BE876B857C858D859E8520E0AB
:1033600030E04AE755E40E941F02DC01CB018F8365
:103370009887A987BA876F81788589859A8520E0A3
:1033800030E040E85FE30E94790388232CF481E079
:1033900090E09E838D833FC06F81788589859A8573
:1033A00020E03FEF4FE757E40E94190318164CF551
:1033B0006B857C858D859E8520E030E040E251E480
:1033C0000E941F02DC01CB01BC01CD010E9449001B
:1033D000DC01CB019E838D830FC080E991E09C834B
:1033E0008B838B819C810197F1F79C838B838D81EB
:1033F0009E8101979E838D838D819E81009769F7C1
:1034000014C06F81788589859A850E944900DC0106
:10341000CB019E838D838D819E819A83898389814F
:103420009A810197F1F79A838983FE01ED59FF4F45
:103430008081CC59DF4F0FB6F894DEBF0FBECDBFF1
:10344000CF91DF911F910F910895DF93CF9300D01B
:10345000CDB7DEB78A8381E0898381E061E040E017
:103460000E94CC0F89838A810E944E15982F8981F2
:10347000892B898389810F900F90CF91DF910895D7
:10348000DF93CF930F92CDB7DEB781E0898381E0E0
:1034900063E041E00E94290E898381E061E041E020
:1034A0000E94290E982F8981892B898381E062E00F
:1034B00041E00E94290E982F8981892B898380E021
:1034C00064E041E00E94290E982F8981892B89832D
:1034D00080E065E041E00E94290E982F8981892BC8
:1034E000898380E066E041E00E94290E982F89815F
:1034F000892B898380E067E041E00E94290E982FA4
:103500008981892B898382E00E94251A982F8981DD
:10351000892B898388E20E94251A982F8981892B1B
:1035200089838CE00E94251A982F8981892B8983B1
:1035300081E00E94251A982F8981892B89838981AE
:103540000F90CF91DF910895DF93CF93CDB7DEB782
:1035500081E00E94251ACF91DF910895DF93CF93E8
:10356000CDB7DEB78EE00E94251ACF91DF91089586
:10357000DF93CF93CDB7DEB78CE00E94251ACF91B1
:10358000DF910895DF93CF9300D0CDB7DEB78A8364
:1035900081E0898381E061E041E00E94CC0F898372
:1035A0008A810E944E15982F8981892B8983898170
:1035B0000F900F90CF91DF910895DF93CF9300D0BC
:1035C0000F92CDB7DEB79B838A8319820EC0EA8142
:1035D000FB8180810E94C21A982F8981892B89835F
:1035E0008A819B8101969B838A83EA81FB8180810A
:1035F000882369F789810F900F900F90CF91DF9109
:103600000895DF93CF9300D000D00F92CDB7DEB7EF
:103610008A836B8381E089838A81282F30E03D8310
:103620002C838C819D81009731F02C813D8121304C
:10363000310539F00CC08B8180580E94251A89838E
:1036400008C08B8180540E94251A898302C081E0C2
:10365000898389810F900F900F900F900F90CF91D9
:10366000DF910895DF93CF9300D000D00F92CDB7B4
:10367000DEB79B838A836C834D8381E089838C8151
:103680006D810E94011B89838A819B810E94DD1AC2
:10369000982F8981892B898389810F900F900F90B2
:1036A0000F900F90CF91DF910895DF93CF93CDB717
:1036B000DEB763970FB6F894DEBF0FBECDBF9B8B0E
:1036C0008A8B81E089838A899B899E012E5F3F4F87
:1036D000B9014AE050E00E94791FCE0102960E9493
:1036E000DD1A8983898163960FB6F894DEBF0FBE19
:1036F000CDBFCF91DF910895DF93CF9300D000D05D
:103700000F92CDB7DEB79C838B836D8381E08A8374
:1037100019828D81882F90E0880F991F880F991F3B
:10372000880F991F80640E94251A8A83198211C00C
:10373000EB81FC8180810E94C21A982F8A81892B9B
:103740008A838B819C8101969C838B8389818F5F87
:1037500089838981883060F38A810F900F900F9060
:103760000F900F90CF91DF910895DF93CF9300D00A
:1037700000D0CDB7DEB78A836B834C8381E0898329
:103780008B816C810E94011B89838A810E94C21AED
:10379000982F8981892B898389810F900F900F90B1
:1037A0000F90CF91DF910895DF93CF930F92CDB714
:1037B000DEB781E0898380E060E040E00E94290E6E
:1037C000898380E061E040E00E94290E982F898182
:1037D000892B898380E062E040E00E94290E982FC7
:1037E0008981892B898380E063E040E00E94290E73
:1037F000982F8981892B8983198280E060E041E0DC
:103800000E94CC0F80E061E041E00E94CC0F80E09C
:1038100062E041E00E94CC0F80E063E041E00E9462
:10382000CC0F198280E064E041E00E94290E898378
:1038300080E065E041E00E94290E982F8981892B64
:10384000898380E066E041E00E94290E982F8981FB
:10385000892B898380E067E041E00E94290E982F40
:103860008981892B898380E064E041E00E94CC0F4C
:1038700080E065E041E00E94CC0F80E066E041E03E
:103880000E94CC0F80E067E041E00E94CC0F1982DB
:1038900089810F90CF91DF910895DF93CF93CDB7BA
:1038A000DEB72A970FB6F894DEBF0FBECDBF9E835A
:1038B0008D8381E08B831A821982ED81FE8188E4F9
:1038C0008083198291C08981282F30E081E090E0C7
:1038D000022E02C0959587950A94E2F78170907048
:1038E000882311F01A8602C081E08A8780E064E0B4
:1038F0004A850E94CC0F8B838981282F30E082E09B
:1039000090E0022E02C0959587950A94E2F78170A7
:103910009070882311F0198602C081E0898780E0C9
:1039200065E049850E94CC0F982F8B81892B8B8372
:103930008981282F30E084E090E0022E02C0959526
:1039400087950A94E2F781709070882311F01886A9
:1039500002C081E0888780E066E048850E94CC0F45
:10396000982F8B81892B8B838981282F30E088E0E9
:1039700090E0022E02C0959587950A94E2F7817037
:103980009070882311F01F8202C081E08F8380E055
:1039900067E04F810E94CC0F9B81892B8B831A8219
:1039A0001DC08A81882F90E0FC01E859FF4F90816B
:1039B0009E012C5F3F4F80E0692FA9010E94330FC9
:1039C000982F8B81892B8B838C81882321F484E031
:1039D000898384E08A838A818F5F8A838A818430A5
:1039E00000F389818F5F89838981843008F46BCFEC
:1039F0008B812A960FB6F894DEBF0FBECDBFCF9154
:103A0000DF910895DF93CF9300D000D0CDB7DEB71C
:103A10008A8381E089838A81282F30E03C832B834D
:103A20008B819C818130910581F02B813C812230FA
:103A3000310591F08B819C810097A9F482E060E0D0
:103A400040E00E94290E898310C082E061E040E0DE
:103A50000E94290E898309C082E062E040E00E9452
:103A6000290E898302C081E0898389810F900F909C
:103A70000F900F90CF91DF910895DF93CF93CDB743
:103A8000DEB7E1970FB6F894DEBF0FBECDBF8DA7AE
:103A90007FA76EA781E08BA78DA5282F30E039ABDB
:103AA00028AB88A999A98130910509F494C028A967
:103AB00039A92230310509F417C188A999A90097BD
:103AC00009F09BC19E01245D3F4F82E060E0A901A7
:103AD0000E94330F8BA78CA5813009F090C180E044
:103AE00090E0A0EFB1E48FA398A7A9A7BAA76FA110
:103AF00078A589A59AA520E030E04AE755E40E9420
:103B00001F02DC01CB018BA39CA3ADA3BEA36BA1C1
:103B10007CA18DA19EA120E030E040E85FE30E94FF
:103B2000790388232CF481E090E09AA389A33FC015
:103B30006BA17CA18DA19EA120E03FEF4FE757E450
:103B40000E94190318164CF56FA178A589A59AA5AE
:103B500020E030E040E251E40E941F02DC01CB0192
:103B6000BC01CD010E944900DC01CB019AA389A3CD
:103B70000FC080E991E098A38F8F8F8D98A1019756
:103B8000F1F798A38F8F89A19AA101979AA389A38E
:103B900089A19AA1009769F714C06BA17CA18DA19E
:103BA0009EA10E944900DC01CB019AA389A389A1AF
:103BB0009AA19E8F8D8F8D8D9E8D0197F1F79E8F8F
:103BC0008D8F9E01245D3F4F82E060E0A9010E943D
:103BD000330F8BA714C19E01245D3F4F82E061E04B
:103BE000A9010E94330F8BA78CA5813009F007C172
:103BF00080E090E0A0EFB1E4898F9A8FAB8FBC8F0B
:103C0000698D7A8D8B8D9C8D20E030E04AE755E4FC
:103C10000E941F02DC01CB018D8B9E8BAF8BB88F76
:103C20006D897E898F89988D20E030E040E85FE3E0
:103C30000E94790388232CF481E090E09C8B8B8B8D
:103C40003FC06D897E898F89988D20E03FEF4FE7D7
:103C500057E40E94190318164CF5698D7A8D8B8DE7
:103C60009C8D20E030E040E251E40E941F02DC0124
:103C7000CB01BC01CD010E944900DC01CB019C8B32
:103C80008B8B0FC080E991E09A8B898B89899A8907
:103C90000197F1F79A8B898B8B899C8901979C8B73
:103CA0008B8B8B899C89009769F714C06D897E89FD
:103CB0008F89988D0E944900DC01CB019C8B8B8BF6
:103CC0008B899C89988B8F878F8598890197F1F7CD
:103CD000988B8F879E01245D3F4F82E061E0A901B0
:103CE0000E94330F8BA78BC09E01245D3F4F82E063
:103CF00062E0A9010E94330F8BA78CA5813009F0E7
:103D00007EC080E090E0A0EFB1E48B879C87AD8718
:103D1000BE876B857C858D859E8520E030E04AE7F7
:103D200055E40E941F02DC01CB018F839887A9878D
:103D3000BA876F81788589859A8520E030E040E8F0
:103D40005FE30E94790388232CF481E090E09E8356
:103D50008D833FC06F81788589859A8520E03FEF0C
:103D60004FE757E40E94190318164CF56B857C85C4
:103D70008D859E8520E030E040E251E40E941F02E4
:103D8000DC01CB01BC01CD010E944900DC01CB016B
:103D90009E838D830FC080E991E09C838B838B8110
:103DA0009C810197F1F79C838B838D819E81019784
:103DB0009E838D838D819E81009769F714C06F81EA
:103DC000788589859A850E944900DC01CB019E8314
:103DD0008D838D819E819A83898389819A810197C0
:103DE000F1F79A8389839E01245D3F4F82E062E070
:103DF000A9010E94330F8BA702C081E08BA78BA57E
:103E0000882349F48CA5813031F4EEA5FFA581E02B
:103E100080831BA60DC08BA5882341F48CA5882325
:103E200029F4EEA5FFA510821BA602C081E08BA796
:103E30008BA5E1960FB6F894DEBF0FBECDBFCF9134
:103E4000DF910895DF93CF93CDB7DEB7E2E5F0E0E1
:103E50001082ECE5F0E08AEF8083A1E3B0E0E1E3DB
:103E6000F0E0808180648C93E3E5F0E089E9808371
:103E7000CF91DF910895DF93CF93CDB7DEB70E9446
:103E8000221FFFCF2F923F924F925F926F927F92AD
:103E90008F929F92AF92BF92CF92DF92EF92FF925A
:103EA0000F931F93CF93DF93CDB7DEB7CA1BDB0B06
:103EB0000FB6F894DEBF0FBECDBF09942A883988AB
:103EC00048885F846E847D848C849B84AA84B984B2
:103ED000C884DF80EE80FD800C811B81AA81B981BE
:103EE000CE0FD11D0FB6F894DEBF0FBECDBFED01D2
:103EF0000895FB019F01E8944230C4F04532B4F4C8
:103F00004A3029F497FB1EF4909581959F4F642FBA
:103F100077270E94AA1F805D8A330CF0895D819308
:103F2000CB010097A1F716F45DE251931082C9010D
:103F30000C949A1FDC01FC01672F71917723E1F744
:103F4000329704C07C916D9370836291AE17BF0766
:103F5000C8F30895AA1BBB1B51E107C0AA1FBB1FD2
:103F6000A617B70710F0A61BB70B881F991F5A9505
:103F7000A9F780959095BC01CD010895F894FFCFE5
:0C3F80000000000000000000000102032F
:00000001FF
